{
    "contractName": "RandomHashGenerator",
    "abi": [
        {
            "inputs": [],
            "stateMutability": "nonpayable",
            "type": "constructor"
        },
        {
            "anonymous": false,
            "inputs": [
                {
                    "indexed": true,
                    "internalType": "address",
                    "name": "previousOwner",
                    "type": "address"
                },
                {
                    "indexed": true,
                    "internalType": "address",
                    "name": "newOwner",
                    "type": "address"
                }
            ],
            "name": "OwnershipTransferred",
            "type": "event"
        },
        {
            "anonymous": false,
            "inputs": [
                {
                    "indexed": true,
                    "internalType": "uint256",
                    "name": "hashValue",
                    "type": "uint256"
                }
            ],
            "name": "RandomHashGenerated",
            "type": "event"
        },
        {
            "inputs": [],
            "name": "generateRandomHash",
            "outputs": [],
            "stateMutability": "nonpayable",
            "type": "function"
        },
        {
            "inputs": [],
            "name": "owner",
            "outputs": [
                {
                    "internalType": "address",
                    "name": "",
                    "type": "address"
                }
            ],
            "stateMutability": "view",
            "type": "function"
        },
        {
            "inputs": [],
            "name": "randomHash",
            "outputs": [
                {
                    "internalType": "uint256",
                    "name": "",
                    "type": "uint256"
                }
            ],
            "stateMutability": "view",
            "type": "function"
        },
        {
            "inputs": [],
            "name": "renounceOwnership",
            "outputs": [],
            "stateMutability": "nonpayable",
            "type": "function"
        },
        {
            "inputs": [
                {
                    "internalType": "address",
                    "name": "newOwner",
                    "type": "address"
                }
            ],
            "name": "transferOwnership",
            "outputs": [],
            "stateMutability": "nonpayable",
            "type": "function"
        }
    ],
    "bytecode": "608060405234801561001057600080fd5b5061001a33610027565b610022610077565b610141565b600080546001600160a01b038381166001600160a01b0319831681178455604051919092169283917f8be0079c531659141344cd1fd0a4f28419497f9722a3daafe3b4186f6b6457e09190a35050565b61007f6100e1565b60408051446020820152429181019190915243606082015260800160408051601f198184030181529082905280516020909101206001819055907f9c75221b591efce4a3e1182f57d816901ff85006f9061702c84f4ac0d3c5d11590600090a2565b6000546001600160a01b0316331461013f5760405162461bcd60e51b815260206004820181905260248201527f4f776e61626c653a2063616c6c6572206973206e6f7420746865206f776e6572604482015260640160405180910390fd5b565b6102c4806101506000396000f3fe608060405234801561001057600080fd5b50600436106100575760003560e01c8063526eca5b1461005c578063715018a6146100785780638da5cb5b14610082578063d71614721461009d578063f2fde38b146100a5575b600080fd5b61006560015481565b6040519081526020015b60405180910390f35b6100806100b8565b005b6000546040516001600160a01b03909116815260200161006f565b6100806100cc565b6100806100b336600461025e565b610136565b6100c06101b4565b6100ca600061020e565b565b6100d46101b4565b60408051446020820152429181019190915243606082015260800160408051601f198184030181529082905280516020909101206001819055907f9c75221b591efce4a3e1182f57d816901ff85006f9061702c84f4ac0d3c5d11590600090a2565b61013e6101b4565b6001600160a01b0381166101a85760405162461bcd60e51b815260206004820152602660248201527f4f776e61626c653a206e6577206f776e657220697320746865207a65726f206160448201526564647265737360d01b60648201526084015b60405180910390fd5b6101b18161020e565b50565b6000546001600160a01b031633146100ca5760405162461bcd60e51b815260206004820181905260248201527f4f776e61626c653a2063616c6c6572206973206e6f7420746865206f776e6572604482015260640161019f565b600080546001600160a01b038381166001600160a01b0319831681178455604051919092169283917f8be0079c531659141344cd1fd0a4f28419497f9722a3daafe3b4186f6b6457e09190a35050565b60006020828403121561027057600080fd5b81356001600160a01b038116811461028757600080fd5b939250505056fea2646970667358221220547d92458eaf7cede07b543372b73903b8256ac9df2fd13f0cc855fc428b915a64736f6c63430008130033",
    "sourcePath": "/home/cheemu-rai/sih/CertifiX/contracts/RandomHashGenerator.sol",
    "compiler": {
        "name": "solc",
        "version": "0.8.19+commit.7dd6d404"
    },
    "functionHashes": {
        "generateRandomHash()": "d7161472",
        "owner()": "8da5cb5b",
        "randomHash()": "526eca5b",
        "renounceOwnership()": "715018a6",
        "transferOwnership(address)": "f2fde38b"
    },
    "gasEstimates": {
        "creation": {
            "codeDepositCost": "141600",
            "executionCost": "51645",
            "totalCost": "193245"
        },
        "external": {
            "generateRandomHash()": "25793",
            "owner()": "2323",
            "randomHash()": "2262",
            "renounceOwnership()": "infinite",
            "transferOwnership(address)": "28364"
        }
    }
}